{
  "_format": "hh-sol-artifact-1",
  "contractName": "TaskContract",
  "sourceName": "contracts/TaskComtract.sol",
  "abi": [
    {
      "anonymous": false,
      "inputs": [
        {
          "indexed": true,
          "internalType": "address",
          "name": "recipient",
          "type": "address"
        },
        {
          "indexed": false,
          "internalType": "uint256",
          "name": "taskId",
          "type": "uint256"
        }
      ],
      "name": "AddTask",
      "type": "event"
    },
    {
      "anonymous": false,
      "inputs": [
        {
          "indexed": true,
          "internalType": "uint256",
          "name": "taskId",
          "type": "uint256"
        },
        {
          "indexed": false,
          "internalType": "bool",
          "name": "isDeleted",
          "type": "bool"
        }
      ],
      "name": "DeleteTask",
      "type": "event"
    },
    {
      "inputs": [
        {
          "internalType": "string",
          "name": "_taskText",
          "type": "string"
        },
        {
          "internalType": "bool",
          "name": "_isDeleted",
          "type": "bool"
        }
      ],
      "name": "addTasks",
      "outputs": [],
      "stateMutability": "nonpayable",
      "type": "function"
    },
    {
      "inputs": [
        {
          "internalType": "uint256",
          "name": "taskId",
          "type": "uint256"
        },
        {
          "internalType": "bool",
          "name": "isDeleted",
          "type": "bool"
        }
      ],
      "name": "deleteTasks",
      "outputs": [],
      "stateMutability": "nonpayable",
      "type": "function"
    },
    {
      "inputs": [],
      "name": "getMyTasks",
      "outputs": [
        {
          "components": [
            {
              "internalType": "uint256",
              "name": "id",
              "type": "uint256"
            },
            {
              "internalType": "string",
              "name": "taskText",
              "type": "string"
            },
            {
              "internalType": "bool",
              "name": "isDeleted",
              "type": "bool"
            }
          ],
          "internalType": "struct TaskContract.Tasks[]",
          "name": "",
          "type": "tuple[]"
        }
      ],
      "stateMutability": "view",
      "type": "function"
    },
    {
      "inputs": [
        {
          "internalType": "uint256",
          "name": "",
          "type": "uint256"
        }
      ],
      "name": "taskToOwner",
      "outputs": [
        {
          "internalType": "address",
          "name": "",
          "type": "address"
        }
      ],
      "stateMutability": "view",
      "type": "function"
    }
  ],
  "bytecode": "0x608060405234801561001057600080fd5b50610f07806100206000396000f3fe608060405234801561001057600080fd5b506004361061004c5760003560e01c80633b310b5b146100515780636641c6c41461006d578063670665e01461009d5780636e13f818146100b9575b600080fd5b61006b600480360381019061006691906107cd565b6100d7565b005b6100876004803603810190610082919061085f565b61020f565b60405161009491906108cd565b60405180910390f35b6100b760048036038101906100b291906108e8565b610242565b005b6100c1610322565b6040516100ce9190610ad7565b60405180910390f35b6000808054905090506000604051806060016040528083815260200185815260200184151581525090806001815401808255809150506001900390600052602060002090600302016000909190919091506000820151816000015560208201518160010190816101479190610d05565b5060408201518160020160006101000a81548160ff0219169083151502179055505050336001600083815260200190815260200160002060006101000a81548173ffffffffffffffffffffffffffffffffffffffff021916908373ffffffffffffffffffffffffffffffffffffffff1602179055503373ffffffffffffffffffffffffffffffffffffffff167f1f54e1ba1832d428fbd7e7792beaf62b1fc5a382c207ffd614209c1413e94fda826040516102029190610de6565b60405180910390a2505050565b60016020528060005260406000206000915054906101000a900473ffffffffffffffffffffffffffffffffffffffff1681565b3373ffffffffffffffffffffffffffffffffffffffff166001600084815260200190815260200160002060009054906101000a900473ffffffffffffffffffffffffffffffffffffffff1673ffffffffffffffffffffffffffffffffffffffff160361031e5780600083815481106102bd576102bc610e01565b5b906000526020600020906003020160020160006101000a81548160ff021916908315150217905550817ff88a35c3d2016c409a46570b994a17b408dbc83c14a03f521512d50b85386d06826040516103159190610e3f565b60405180910390a25b5050565b60606000808054905067ffffffffffffffff8111156103445761034361066a565b5b60405190808252806020026020018201604052801561037d57816020015b61036a610618565b8152602001906001900390816103625790505b5090506000805b60008054905081101561055e573373ffffffffffffffffffffffffffffffffffffffff166001600083815260200190815260200160002060009054906101000a900473ffffffffffffffffffffffffffffffffffffffff1673ffffffffffffffffffffffffffffffffffffffff161480156104355750600015156000828154811061041257610411610e01565b5b906000526020600020906003020160020160009054906101000a900460ff161515145b1561054b576000818154811061044e5761044d610e01565b5b90600052602060002090600302016040518060600160405290816000820154815260200160018201805461048190610b28565b80601f01602080910402602001604051908101604052809291908181526020018280546104ad90610b28565b80156104fa5780601f106104cf576101008083540402835291602001916104fa565b820191906000526020600020905b8154815290600101906020018083116104dd57829003601f168201915b505050505081526020016002820160009054906101000a900460ff16151515158152505083838151811061053157610530610e01565b5b6020026020010181905250818061054790610e89565b9250505b808061055690610e89565b915050610384565b5060008167ffffffffffffffff81111561057b5761057a61066a565b5b6040519080825280602002602001820160405280156105b457816020015b6105a1610618565b8152602001906001900390816105995790505b50905060005b8281101561060e578381815181106105d5576105d4610e01565b5b60200260200101518282815181106105f0576105ef610e01565b5b6020026020010181905250808061060690610e89565b9150506105ba565b5080935050505090565b604051806060016040528060008152602001606081526020016000151581525090565b6000604051905090565b600080fd5b600080fd5b600080fd5b600080fd5b6000601f19601f8301169050919050565b7f4e487b7100000000000000000000000000000000000000000000000000000000600052604160045260246000fd5b6106a282610659565b810181811067ffffffffffffffff821117156106c1576106c061066a565b5b80604052505050565b60006106d461063b565b90506106e08282610699565b919050565b600067ffffffffffffffff821115610700576106ff61066a565b5b61070982610659565b9050602081019050919050565b82818337600083830152505050565b6000610738610733846106e5565b6106ca565b90508281526020810184848401111561075457610753610654565b5b61075f848285610716565b509392505050565b600082601f83011261077c5761077b61064f565b5b813561078c848260208601610725565b91505092915050565b60008115159050919050565b6107aa81610795565b81146107b557600080fd5b50565b6000813590506107c7816107a1565b92915050565b600080604083850312156107e4576107e3610645565b5b600083013567ffffffffffffffff8111156108025761080161064a565b5b61080e85828601610767565b925050602061081f858286016107b8565b9150509250929050565b6000819050919050565b61083c81610829565b811461084757600080fd5b50565b60008135905061085981610833565b92915050565b60006020828403121561087557610874610645565b5b60006108838482850161084a565b91505092915050565b600073ffffffffffffffffffffffffffffffffffffffff82169050919050565b60006108b78261088c565b9050919050565b6108c7816108ac565b82525050565b60006020820190506108e260008301846108be565b92915050565b600080604083850312156108ff576108fe610645565b5b600061090d8582860161084a565b925050602061091e858286016107b8565b9150509250929050565b600081519050919050565b600082825260208201905092915050565b6000819050602082019050919050565b61095d81610829565b82525050565b600081519050919050565b600082825260208201905092915050565b60005b8381101561099d578082015181840152602081019050610982565b60008484015250505050565b60006109b482610963565b6109be818561096e565b93506109ce81856020860161097f565b6109d781610659565b840191505092915050565b6109eb81610795565b82525050565b6000606083016000830151610a096000860182610954565b5060208301518482036020860152610a2182826109a9565b9150506040830151610a3660408601826109e2565b508091505092915050565b6000610a4d83836109f1565b905092915050565b6000602082019050919050565b6000610a6d82610928565b610a778185610933565b935083602082028501610a8985610944565b8060005b85811015610ac55784840389528151610aa68582610a41565b9450610ab183610a55565b925060208a01995050600181019050610a8d565b50829750879550505050505092915050565b60006020820190508181036000830152610af18184610a62565b905092915050565b7f4e487b7100000000000000000000000000000000000000000000000000000000600052602260045260246000fd5b60006002820490506001821680610b4057607f821691505b602082108103610b5357610b52610af9565b5b50919050565b60008190508160005260206000209050919050565b60006020601f8301049050919050565b600082821b905092915050565b600060088302610bbb7fffffffffffffffffffffffffffffffffffffffffffffffffffffffffffffffff82610b7e565b610bc58683610b7e565b95508019841693508086168417925050509392505050565b6000819050919050565b6000610c02610bfd610bf884610829565b610bdd565b610829565b9050919050565b6000819050919050565b610c1c83610be7565b610c30610c2882610c09565b848454610b8b565b825550505050565b600090565b610c45610c38565b610c50818484610c13565b505050565b5b81811015610c7457610c69600082610c3d565b600181019050610c56565b5050565b601f821115610cb957610c8a81610b59565b610c9384610b6e565b81016020851015610ca2578190505b610cb6610cae85610b6e565b830182610c55565b50505b505050565b600082821c905092915050565b6000610cdc60001984600802610cbe565b1980831691505092915050565b6000610cf58383610ccb565b9150826002028217905092915050565b610d0e82610963565b67ffffffffffffffff811115610d2757610d2661066a565b5b610d318254610b28565b610d3c828285610c78565b600060209050601f831160018114610d6f5760008415610d5d578287015190505b610d678582610ce9565b865550610dcf565b601f198416610d7d86610b59565b60005b82811015610da557848901518255600182019150602085019450602081019050610d80565b86831015610dc25784890151610dbe601f891682610ccb565b8355505b6001600288020188555050505b505050505050565b610de081610829565b82525050565b6000602082019050610dfb6000830184610dd7565b92915050565b7f4e487b7100000000000000000000000000000000000000000000000000000000600052603260045260246000fd5b610e3981610795565b82525050565b6000602082019050610e546000830184610e30565b92915050565b7f4e487b7100000000000000000000000000000000000000000000000000000000600052601160045260246000fd5b6000610e9482610829565b91507fffffffffffffffffffffffffffffffffffffffffffffffffffffffffffffffff8203610ec657610ec5610e5a565b5b60018201905091905056fea26469706673582212202097e7e0af2e930c996fd060ac4c33b97bfd51babff195d24edff04a6e42618a64736f6c63430008110033",
  "linkReferences": {},
  "deployedLinkReferences": {}
}